:020000040800F2
:100000000050002099080008DD040008E5040008FD
:10001000ED040008F5040008FD04000800000000DD
:1000200000000000000000000000000005050008BE
:1000300011050008000000001D0500082905000842
:10004000E1080008E1080008E1080008E1080008EC
:10005000E1080008E1080008E1080008E1080008DC
:10006000E1080008E1080008E1080008E1080008CC
:10007000E1080008E1080008E1080008E1080008BC
:10008000E1080008E1080008E1080008E1080008AC
:10009000E1080008E1080008E1080008E10800089C
:1000A000E1080008E1080008E1080008E10800088C
:1000B000E1080008E1080008E1080008E10800087C
:1000C000E1080008E1080008E1080008E10800086C
:1000D000E1080008E1080008E1080008E10800085C
:1000E00035050008E1080008E108000800000000EC
:1000F0000000000000000000000000000000000000
:0C01000000000000000000005FF808F1A3
:10010C0010B5054C237833B9044B13B10448AFF345
:10011C0000800123237010BD0C00002000000000A3
:10012C00E036000808B5034B1BB103490348AFF395
:10013C00008008BD0000000010000020E036000820
:10014C0080B588B000AF07F1100300221A605A6026
:10015C009A60DA602E4B9B692D4A43F01003936131
:10016C002B4B9B6903F01003FB60FB68284B9B69CE
:10017C00274A43F020039361254B9B6903F020032E
:10018C00BB60BB68224B9B69214A43F0040393611B
:10019C001F4B9B6903F004037B607B681C4B9B69C2
:1001AC001B4A43F008039361194B9B6903F0080346
:1001BC003B603B6800224FF40051164800F0A4FE4F
:1001CC004FF400533B6101237B610023BB6102238D
:1001DC00FB6107F1100319460E4800F011FD4FF4B6
:1001EC0000433B610C4B7B610123BB6107F11003A6
:1001FC0019460A4800F004FD00220321282000F0D3
:10020C00C8FC282000F0E1FC00BF2037BD4680BDB3
:10021C00001002400010014000002110000C0140B1
:10022C0080B500AF124B134A1A60114B124A5A6038
:10023C000F4B00229A600E4B0022DA600C4B4FF4ED
:10024C0080421A610A4B00225A61094B00229A61C2
:10025C00074B0022DA61064B00221A62044800F0B8
:10026C00A7FE0346002B01D000F0F9F800BF80BDBB
:10027C002800002000540040801A060080B588B089
:10028C0000AF786007F1100300221A605A609A6080
:10029C00DA607B681B68154A934223D1144B9B6927
:1002AC00134A43F008039361114B9B6903F0080355
:1002BC00FB60FB68C0233B6112237B610323FB6162
:1002CC0007F1100319460B4800F09AFC084BDB6948
:1002DC00074A43F40013D361054BDB6903F40013A5
:1002EC00BB60BB6800BF2037BD4680BD00540040DA
:1002FC0000100240000C014080B582B000AF00F04D
:10030C00EBFA00F067F8FFF71BFF00F07BF9FFF743
:10031C0087FF00F01FF900237B60142000F03EFBE8
:10032C0003F01AF83C21294802F01EF90C21284848
:10033C0001F07EFF264B1B6800221A64642000F03B
:10034C002DFB00233B601FE003F058F83B68DAB24A
:10035C0000232021402003F0B5F83B68DBB25B00A2
:10036C00DAB200232021402003F0ACF83B68DBB26A
:10037C001A4652001344DAB200232021402003F025
:10038C00A1F83B6801333B603B683F2BDCDD0F4B36
:10039C001B685B6A7B607B68472B0CDD7B68B3F565
:1003AC007A7F06DD00237B60084B1B6800225A62B3
:1003BC0001E048237B607B68002B01DC00237B6021
:1003CC00034B1B687A681A64BBE700BF7C000020F3
:1003DC00C400002080B590B000AF07F118032822AC
:1003EC000021184603F04AF93B1D00221A605A609E
:1003FC009A60DA601A610123BB614FF48033FB61B0
:10040C0000233B620123BB6202237B634FF48033E6
:10041C00BB634FF4E013FB6307F11803184601F0BC
:10042C0063FA0346002B01D000F019F80F237B6010
:10043C000223BB600023FB604FF480633B6100230D
:10044C007B613B1D0221184601F0D0FC0346002BBA
:10045C0001D000F004F800BF4037BD4680BD80B429
:10046C0000AF72B600BF00BFFDE7000080B485B0DE
:10047C0000AF154B9B69144A43F001039361124B77
:10048C009B6903F00103BB60BB680F4BDB690E4A31
:10049C0043F08053D3610C4BDB6903F080537B60DA
:1004AC007B680A4B5B68FB60FB6823F0E063FB60D6
:1004BC00FB6843F00073FB60044AFB68536000BFA9
:1004CC001437BD4680BC704700100240000001404C
:1004DC0080B400AF00BFFDE780B400AF00BFFDE704
:1004EC0080B400AF00BFFDE780B400AF00BFFDE7F4
:1004FC0080B400AF00BFFDE780B400AF00BFBD46C5
:10050C0080BC704780B400AF00BFBD4680BC704754
:10051C0080B400AF00BFBD4680BC704780B500AF53
:10052C0000F020FA00BF80BD80B500AF4FF4005141
:10053C00044800F001FD4FF4004000F017FD00BF2F
:10054C0080BD00BF0010014080B400AF00BFBD46AD
:10055C0080BC704780B58CB000AF07F10C0324222F
:10056C000021184603F08AF83B1D00221A605A60DD
:10057C00224B234A1A60214B00225A601F4B002247
:10058C009A601E4B4FF6FF72DA601C4B00221A6108
:10059C001A4B0F225A61194B00229A610123FB60FE
:1005AC0000233B6101237B610023BB610F23FB61B3
:1005BC0000233B6201237B620023BB620023FB62AE
:1005CC0007F10C0319460D4801F02CFF0346002BD4
:1005DC0001D0FFF744FF00237B600023BB603B1D71
:1005EC001946064802F032FE0346002B01D0FFF7F5
:1005FC0036FF00BF3037BD4680BD00BF7C000020F9
:10060C00002C014080B592B000AF07F138030022F6
:10061C001A605A609A60DA6007F1300300221A609F
:10062C005A6007F1200300221A605A609A60DA605F
:10063C003B1D00221A605A609A60DA601A615A6196
:10064C009A613B4B4FF080421A60394B27225A601B
:10065C00374B00229A60364B4722DA60344B00222B
:10066C001A61334B00229A61314801F039FD03467F
:10067C00002B01D0FFF7F3FE4FF48053BB6307F15F
:10068C00380319462A4802F05BF90346002B01D0C7
:10069C00FFF7E5FE264801F06DFE0346002B01D066
:1006AC00FFF7DDFE224801F06AFD0346002B01D066
:1006BC00FFF7D5FE00233B6300237B6307F1300378
:1006CC0019461B4802F0C2FD0346002B01D0FFF770
:1006DC00C6FE00233B6201237B620023BB62002326
:1006EC00FB6207F1200300221946114801F0CAFFF2
:1006FC000346002B01D0FFF7B2FE60237B6024235E
:10070C00BB600023FB6000237B613B1D0C22194660
:10071C00074802F053F80346002B01D0FFF79FFE69
:10072C00034800F083F800BF4837BD4680BD00BFCA
:10073C00C400002080B588B000AF786007F11003CA
:10074C0000221A605A609A60DA607B681B68164A4D
:10075C00934224D1154B9B69144A43F40063936173
:10076C00124B9B6903F40063FB60FB680F4B9B69A6
:10077C000E4A43F0040393610C4B9B6903F0040392
:10078C00BB60BB684FF440733B6100237B6100236B
:10079C00BB6107F110031946054800F031FA00BFA0
:1007AC002037BD4680BD00BF002C01400010024028
:1007BC000008014080B588B000AF786007F11003E5
:1007CC0000221A605A609A60DA607B681B68B3F189
:1007DC00804F23D1134BDB69124A43F00103D361E1
:1007EC00104BDB6903F00103FB60FB680D4B9B694D
:1007FC000C4A43F0040393610A4B9B6903F0040316
:10080C00BB60BB6801233B6100237B610023BB61A0
:10081C0007F110031946044800F0F2F900BF203725
:10082C00BD4680BD001002400008014080B588B074
:10083C0000AF786007F1100300221A605A609A60CA
:10084C00DA607B681B68B3F1804F17D10D4B9B6945
:10085C000C4A43F0040393610A4B9B6903F00403B5
:10086C00FB60FB6808233B6102237B610223FB6175
:10087C0007F110031946044800F0C2F900BF2037F5
:10088C00BD4680BD0010024000080140FFF75CFE31
:10089C000B480C490C4A002302E0D458C4500433D2
:1008AC00C4188C42F9D3094A094C002301E01360A7
:1008BC000432A242FBD302F0E9FEFFF71DFD7047A4
:1008CC00000000200C0000202C3700080C00002039
:1008DC0014050020FEE7000080B500AF084B1B6834
:1008EC00074A43F010031360032000F047F90F2070
:1008FC0000F008F8FFF7BAFD0023184680BD00BFD2
:10090C000020024080B582B000AF7860124B1A68AC
:10091C00124B1B7819464FF47A73B3FBF1F3B2FB0D
:10092C00F3F3184600F05FF90346002B01D00123C6
:10093C000EE07B680F2B0AD8002279684FF0FF304D
:10094C0000F027F9064A7B681360002300E00123BE
:10095C0018460837BD4680BD000000200800002066
:10096C000400002080B400AF054B1B781A46054BE1
:10097C001B681344034A136000BFBD4680BC70471C
:10098C00080000200C01002080B400AF024B1B6853
:10099C001846BD4680BC70470C01002080B584B061
:1009AC0000AF7860FFF7F0FFB8607B68FB60FB6816
:1009BC00B3F1FF3F05D00A4B1B781A46FB68134472
:1009CC00FB6000BFFFF7E0FF0246BB68D31AFA6872
:1009DC009A42F7D800BF00BF1037BD4680BD00BF9C
:1009EC000800002080B485B000AF78607B6803F00D
:1009FC000703FB600C4BDB68BB60BA684FF6FF0368
:100A0C001340BB60FB681A02BB68134343F0BF631F
:100A1C0043F40033BB60044ABB68D36000BF143797
:100A2C00BD4680BC704700BF00ED00E080B400AF55
:100A3C00044BDB681B0A03F007031846BD4680BC59
:100A4C00704700BF00ED00E080B483B000AF0346F8
:100A5C00FB7197F90730002B0BDBFB7903F01F02BE
:100A6C00064997F907305B09012000FA02F241F8B8
:100A7C00232000BF0C37BD4680BC704700E100E06E
:100A8C0080B483B000AF03463960FB7197F907302F
:100A9C00002B0ADB3B68DAB20C4997F907301201DC
:100AAC00D2B20B4483F800230AE03B68DAB208495F
:100ABC00FB7903F00F03043B1201D2B20B441A76FC
:100ACC0000BF0C37BD4680BC704700BF00E100E0A2
:100ADC0000ED00E080B489B000AFF860B9607A60D6
:100AEC00FB6803F00703FB61FB69C3F10703042BED
:100AFC0028BF0423BB61FB690433062B02D9FB69B5
:100B0C00033B00E000237B614FF0FF32BB6902FA2C
:100B1C0003F3DA43BB681A407B699A404FF0FF310C
:100B2C007B6901FA03F3D9437B680B4013431846E6
:100B3C002437BD4680BC704780B582B000AF78606A
:100B4C007B68013BB3F1807F01D301230FE00A4A9C
:100B5C007B68013B53600F214FF0FF30FFF790FF94
:100B6C00054B00229A60044B07221A60002318469A
:100B7C000837BD4680BD00BF10E000E080B582B0F4
:100B8C0000AF78607868FFF72DFF00BF0837BD46CF
:100B9C0080BD80B586B000AF0346B9607A60FB7348
:100BAC0000237B61FFF742FF78617A68B968786946
:100BBC00FFF790FF024697F90F3011461846FFF7E2
:100BCC005FFF00BF1837BD4680BD80B582B000AF57
:100BDC000346FB7197F907301846FFF735FF00BF46
:100BEC000837BD4680BD80B582B000AF78607868AC
:100BFC00FFF7A2FF034618460837BD4680BD00002C
:100C0C0080B48BB000AF7860396000237B62002326
:100C1C003B6269E101227B6A02FA03F3FB613B68E8
:100C2C001B68FA691340BB61BA69FB699A4240F0D0
:100C3C0058813B685B689A4A93425ED0984A9342CB
:100C4C0075D8984A934258D0964A93426FD8964A90
:100C5C00934252D0944A934269D8944A93424CD0CE
:100C6C00924A934263D8924A934246D0904A934216
:100C7C005DD8122B2AD8122B59D801A252F823F086
:100C8C00070D0008E10C0008F30C0008350D0008F6
:100C9C003B0D00083B0D00083B0D00083B0D000808
:100CAC003B0D00083B0D00083B0D00083B0D0008F8
:100CBC003B0D00083B0D00083B0D00083B0D0008E8
:100CCC003B0D0008E90C0008FD0C0008794A934222
:100CDC0013D02CE03B68DB683B6229E03B68DB68A7
:100CEC0004333B6224E03B68DB6808333B621FE063
:100CFC003B68DB680C333B621AE03B689B68002B5B
:100D0C0002D104233B6213E03B689B68012B05D1A5
:100D1C0008233B627B68FA691A6109E008233B628D
:100D2C007B68FA695A6103E000233B6200E000BF74
:100D3C00BB69FF2B01D87B6801E07B6804337B61C6
:100D4C00BB69FF2B02D87B6A9B0002E07B6A083BE5
:100D5C009B003B617B691A680F213B6901FA03F325
:100D6C00DB431A40396A3B6901FA03F31A437B6986
:100D7C001A603B685B6803F08053002B00F0B18075
:100D8C004D4B9B694C4A43F0010393614A4B9B6961
:100D9C0003F00103BB60BB68484A7B6A9B080233C3
:100DAC0052F82330FB607B6A03F003039B000F2295
:100DBC0002FA03F3DB43FA681340FB607B68404A9A
:100DCC00934213D07B683F4A93420DD07B683E4AD6
:100DDC00934207D07B683D4A934201D1032306E03E
:100DEC00042304E0022302E0012300E000237A6ADA
:100DFC0002F0030292009340FA681343FB602F4900
:100E0C007B6A9B080233FA6841F823203B685B68D5
:100E1C0003F48013002B06D02D4B9A682C49BB6928
:100E2C0013438B6006E02A4B9A68BB69DB43284965
:100E3C0013408B603B685B6803F40013002B06D0F7
:100E4C00234BDA682249BB691343CB6006E0204B85
:100E5C00DA68BB69DB431E491340CB603B685B68B7
:100E6C0003F40033002B06D0194B5A681849BB69A0
:100E7C0013434B6006E0164B5A68BB69DB431449BD
:100E8C0013404B603B685B6803F48033002B21D02C
:100E9C000F4B1A680E49BB6913430B6021E000BF6E
:100EAC000000321000003110000022100000211050
:100EBC000000121000001110001002400000014050
:100ECC0000080140000C01400010014000140140DA
:100EDC00000401400B4B1A68BB69DB430949134002
:100EEC000B607B6A01337B623B681A687B6A22FA6F
:100EFC0003F3002B7FF48EAE00BF00BF2C37BD4632
:100F0C0080BC70470004014080B483B000AF7860AF
:100F1C000B467B8013467B707B78002B03D07A8842
:100F2C007B681A6103E07B881A047B681A6100BF36
:100F3C000C37BD4680BC704780B485B000AF78607C
:100F4C000B467B807B68DB68FB607A88FB68134010
:100F5C001A04FB68D9437B880B401A437B681A61DF
:100F6C0000BF1437BD4680BC7047000080B582B00E
:100F7C0000AF0346FB80084B5A69FB881340002BDB
:100F8C0006D0054AFB885361FB88184600F006F82A
:100F9C0000BF0837BD4680BD0004014080B483B05B
:100FAC0000AF0346FB8000BF0C37BD4680BC7047CA
:100FBC0080B584B000AF78607B68002B01D1012331
:100FCC002BE17B6893F83D30DBB2002B06D17B68BC
:100FDC00002283F83C207868FFF750F97B682422C4
:100FEC0083F83D207B681B681A687B681B6822F0BD
:100FFC0001021A607B681B681A687B681B6842F4E4
:10100C0000421A607B681B681A687B681B6822F4B4
:10101C0000421A6001F032F8F8607B685B68814A24
:10102C00934207D8FB68804A934294BF0123002364
:10103C00DBB206E0FB687D4A934294BF0123002398
:10104C00DBB2002B01D00123E7E0FB68784AA2FB5E
:10105C0003239B0CBB607B681B685B6823F03F0120
:10106C007B681B68BA680A435A607B681B681B6AFA
:10107C0023F03F017B685B686A4A934202D8BB68E5
:10108C00013309E0BB684FF4967202FB03F3694A23
:10109C00A2FB03239B0901337A6812680B4313628A
:1010AC007B681B68DB6923F44F4222F0FF027B68EC
:1010BC005B685C498B4219D8FB68591E7B685B687E
:1010CC005B00B1FBF3F3591C40F6FC730B40002B97
:1010DC000AD0FB68591E7B685B685B00B1FBF3F3BD
:1010EC000133C3F30B0351E004234FE07B689B688F
:1010FC00002B11D1FB68581E7B6859680B465B00AE
:10110C000B44B0FBF3F30133C3F30B03002B0CBF05
:10111C0001230023DBB212E0FB68581E7B68596880
:10112C000B469B000B4499000B44B0FBF3F30133CB
:10113C00C3F30B03002B0CBF01230023DBB2002BEA
:10114C0001D0012322E07B689B68002B0ED1FB6849
:10115C00581E7B6859680B465B000B44B0FBF3F3DD
:10116C000133C3F30B0343F400430FE0FB68581E39
:10117C007B6859680B469B000B4499000B44B0FBF1
:10118C00F3F30133C3F30B0343F440437968096869
:10119C001343CB617B681B681B6823F0C0017B6821
:1011AC00DA697B681B6A1A437B681B680A431A60FE
:1011BC007B681B689B6823F4034323F0FF037A6866
:1011CC0011697A68D26811437A6812680B4393608C
:1011DC007B681B68DB6823F0FF017B685A697B68BE
:1011EC009B691A437B681B680A43DA607B681B683F
:1011FC001A687B681B6842F001021A607B68002247
:10120C001A647B68202283F83D207B6800221A63D5
:10121C007B68002283F83E20002318461037BD4619
:10122C0080BD00BFA08601007F841E00FF083D002A
:10123C0083DE1B43D34D621080B588B002AFF860DB
:10124C007A601A460B467B8113463B81FFF79CFB69
:10125C007861FB6893F83D30DBB2202B40F0E080E6
:10126C007B690093192301227049F86800F064F936
:10127C000346002B01D00223D3E0FB6893F83C30EB
:10128C00012B01D10223CCE0FB68012283F83C2026
:10129C00FB681B681B6803F00103012B07D0FB687C
:1012AC001B681A68FB681B6842F001021A60FB6835
:1012BC001B681A68FB681B6822F400621A60FB68E2
:1012CC00212283F83D20FB68102283F83E20FB6826
:1012DC0000221A64FB687A685A62FB683A895A855C
:1012EC00FB685B8D9AB2FB681A85FB68504ADA6220
:1012FC0079897B693A6AF86800F09CF80346002B00
:10130C0001D001238DE000233B61FB681B685B6906
:10131C003B61FB681B689B693B613B6966E07A69D2
:10132C00396AF86800F022FA0346002B0DD0FB68EE
:10133C001B6C042B07D1FB681B681A68FB681B68C5
:10134C0042F400721A6001236BE0FB685B6A1A7846
:10135C00FB681B681A61FB685B6A5A1CFB685A6263
:10136C00FB685B8D9BB2013B9AB2FB685A85FB68AC
:10137C001B8D013B9AB2FB681A85FB681B685B6985
:10138C0003F00403042B1BD1FB681B8D002B17D01F
:10139C00FB685B6A1A78FB681B681A61FB685B6AFE
:1013AC005A1CFB685A62FB685B8D9BB2013B9AB27C
:1013BC00FB685A85FB681B8D013B9AB2FB681A854A
:1013CC007A69396AF86800F019FA0346002B0DD0D7
:1013DC00FB681B6C042B07D1FB681B681A68FB6845
:1013EC001B6842F400721A6001231AE0FB681B8D23
:1013FC00002B94D1FB681B681A68FB681B6842F4CD
:10140C0000721A60FB68202283F83D20FB680022E2
:10141C0083F83E20FB68002283F83C20002300E088
:10142C00022318461837BD4680BD00BF02001000CD
:10143C000000FFFF80B588B002AFF8607A603B60B7
:10144C000B467B81FB68DB6A7B617B69082B06D0D2
:10145C007B69012B03D07B6913F5803F08D1FB68B6
:10146C001B681A68FB681B6842F480721A600BE0F8
:10147C00FB681B6B122B07D1FB681B681A68FB6897
:10148C001B6842F480721A603B6800937B680022F0
:10149C004FF00111F86800F04FF80346002B0DD007
:1014AC00FB681B681B6803F48073B3F5807F03D162
:1014BC00FB684FF400721A64032335E0FB681B6968
:1014CC00B3F5804F08D17B89DBB21A46FB681B68E9
:1014DC0002F0FE021A611BE07B89DB11DBB203F028
:1014EC000603DBB263F00F03DAB2FB681B681A6108
:1014FC003B687A680E49F86800F098F80346002BB0
:10150C0001D0012310E07B89DAB2FB681B681A61F9
:10151C003B687A680749F86800F088F80346002BA6
:10152C0001D0012300E0002318461837BD4680BDCA
:10153C00080001000200010080B584B000AFF86023
:10154C00B9603B601346FB7148E03B68B3F1FF3F69
:10155C0044D0FFF719FA0246BB69D31A3A689A428B
:10156C0002D33B68002B39D1BB681B0CDBB2012BBF
:10157C000DD1FB681B685B69DA43BB6813409BB2F7
:10158C00002B0CBF01230023DBB21A460CE0FB68D6
:10159C001B689B69DA43BB6813409BB2002B0CBFE2
:1015AC0001230023DBB21A46FB799A4216D1FB6861
:1015BC0000221A63FB68202283F83D20FB6800227E
:1015CC0083F83E20FB681B6C43F02002FB681A6416
:1015DC00FB68002283F83C20012323E0BB681B0C32
:1015EC00DBB2012B0DD1FB681B685B69DA43BB686E
:1015FC0013409BB2002B0CBF01230023DBB21A4615
:10160C000CE0FB681B689B69DA43BB6813409BB218
:10161C00002B0CBF01230023DBB21A46FB799A4244
:10162C0093D0002318461037BD4680BD80B584B0DA
:10163C0000AFF860B9607A603B6071E0FB681B68D2
:10164C005B6903F48063B3F5806F23D1FB681B687F
:10165C001A68FB681B6842F400721A60FB681B680E
:10166C006FF480625A61FB6800221A63FB682022C7
:10167C0083F83D20FB68002283F83E20FB681B6C3E
:10168C0043F00402FB681A64FB68002283F83C20D8
:10169C00012367E07B68B3F1FF3F41D0FFF774F99A
:1016AC0002463B68D31A7A689A4202D37B68002BB5
:1016BC0036D1BB681B0CDBB2012B0CD1FB681B6851
:1016CC005B69DA43BB6813409BB2002B14BF012348
:1016DC000023DBB20BE0FB681B689B69DA43BB6839
:1016EC0013409BB2002B14BF01230023DBB2002B51
:1016FC0016D0FB6800221A63FB68202283F83D2079
:10170C00FB68002283F83E20FB681B6C43F0200230
:10171C00FB681A64FB68002283F83C20012321E05B
:10172C00BB681B0CDBB2012B0CD1FB681B685B6923
:10173C00DA43BB6813409BB2002B14BF0123002378
:10174C00DBB20BE0FB681B689B69DA43BB68134098
:10175C009BB2002B14BF01230023DBB2002B7FF4C0
:10176C006DAF002318461037BD4680BD80B584B0E0
:10177C0000AFF860B9607A6034E0F86800F086F881
:10178C000346002B01D0012334E0BB68B3F1FF3FCB
:10179C0028D0FFF7F9F802467B68D31ABA689A4248
:1017AC0002D3BB68002B1DD1FB681B685B6903F07F
:1017BC008003802B16D0FB6800221A63FB68202262
:1017CC0083F83D20FB68002283F83E20FB681B6CED
:1017DC0043F02002FB681A64FB68002283F83C206B
:1017EC00012307E0FB681B685B6903F08003802B17
:1017FC00C3D1002318461037BD4680BD80B584B0D8
:10180C0000AFF860B9607A6034E0F86800F03EF838
:10181C000346002B01D0012334E0BB68B3F1FF3F3A
:10182C0028D0FFF7B1F802467B68D31ABA689A42FF
:10183C0002D3BB68002B1DD1FB681B685B6903F0EE
:10184C000403042B16D0FB6800221A63FB682022C9
:10185C0083F83D20FB68002283F83E20FB681B6C5C
:10186C0043F02002FB681A64FB68002283F83C20DA
:10187C00012307E0FB681B685B6903F00403042B7E
:10188C00C3D1002318461037BD4680BD80B483B049
:10189C0000AF78607B681B685B6903F48063B3F509
:1018AC00806F1BD17B681B686FF480625A617B6808
:1018BC0000221A637B68202283F83D207B6800227B
:1018CC0083F83E207B681B6C43F004027B681A642F
:1018DC007B68002283F83C20012300E0002318469B
:1018EC000C37BD4680BC704780B586B000AF7860C1
:1018FC007B68002B01D1012372E27B681B6803F02B
:10190C000103002B00F08780924B5B6803F00C0303
:10191C00042B0CD08F4B5B6803F00C03082B12D1FB
:10192C008C4B5B6803F48033B3F5803F0BD1894B50
:10193C001B6803F40033002B6CD07B685B68002BB6
:10194C0068D101234CE27B685B68B3F5803F06D11C
:10195C00804B1B687F4A43F4803313602EE07B6816
:10196C005B68002B0CD17B4B1B687A4A23F48033C9
:10197C001360784B1B68774A23F4802313601DE0B7
:10198C007B685B68B3F5A02F0CD1724B1B68714A56
:10199C0043F4802313606F4B1B686E4A43F480330F
:1019AC0013600BE06B4B1B686A4A23F480331360A3
:1019BC00684B1B68674A23F4802313607B685B6861
:1019CC00002B13D0FEF7E0FF386108E0FEF7DCFFD8
:1019DC0002463B69D31A642B01D9032300E25D4B09
:1019EC001B6803F40033002BF0D014E0FEF7CCFF9F
:1019FC00386108E0FEF7C8FF02463B69D31A642B36
:101A0C0001D90323ECE1534B1B6803F40033002B87
:101A1C00F0D100E000BF7B681B6803F00203002BD1
:101A2C0063D04C4B5B6803F00C03002B0BD0494B81
:101A3C005B6803F00C03082B1CD1464B5B6803F46A
:101A4C008033002B16D1434B1B6803F00203002B91
:101A5C0005D07B681B69012B01D00123C0E13D4BF4
:101A6C001B6823F0F8027B685B69DB003949134380
:101A7C000B603AE07B681B69002B20D0364B0122AF
:101A8C001A60FEF781FF386108E0FEF77DFF024621
:101A9C003B69D31A022B01D90323A1E12D4B1B68FF
:101AAC0003F00203002BF0D02A4B1B6823F0F80242
:101ABC007B685B69DB00274913430B6015E0264B01
:101ACC0000221A60FEF760FF386108E0FEF75CFF49
:101ADC0002463B69D31A022B01D9032380E11D4B2B
:101AEC001B6803F00203002BF0D17B681B6803F02A
:101AFC000803002B3AD07B689B69002B19D0174B3D
:101B0C0001221A60FEF740FF386108E0FEF73CFF47
:101B1C0002463B69D31A022B01D9032360E10D4B1A
:101B2C005B6A03F00203002BF0D0012000F0BAFA3C
:101B3C001CE00A4B00221A60FEF726FF38610FE00A
:101B4C00FEF722FF02463B69D31A022B08D9032366
:101B5C0046E100BF001002400000424280044242B5
:101B6C00924B5B6A03F00203002BE9D17B681B6884
:101B7C0003F00403002B00F0A6800023FB758B4BB5
:101B8C00DB6903F08053002B0DD1884BDB69874A4E
:101B9C0043F08053D361854BDB6903F08053BB600A
:101BAC00BB680123FB75824B1B6803F48073002B0D
:101BBC0018D17F4B1B687E4A43F480731360FEF789
:101BCC00E3FE386108E0FEF7DFFE02463B69D31AFC
:101BDC00642B01D9032303E1754B1B6803F4807359
:101BEC00002BF0D07B68DB68012B06D16F4B1B6A96
:101BFC006E4A43F0010313622DE07B68DB68002B17
:101C0C000CD16A4B1B6A694A23F001031362674BC0
:101C1C001B6A664A23F0040313621CE07B68DB68D2
:101C2C00052B0CD1614B1B6A604A43F00403136211
:101C3C005E4B1B6A5D4A43F0010313620BE05B4B86
:101C4C001B6A5A4A23F001031362584B1B6A574A0A
:101C5C0023F0040313627B68DB68002B15D0FEF7BE
:101C6C0093FE38610AE0FEF78FFE02463B69D31AF9
:101C7C0041F28832934201D90323B1E04B4B1B6AEA
:101C8C0003F00203002BEED014E0FEF77DFE38616A
:101C9C000AE0FEF779FE02463B69D31A41F288321C
:101CAC00934201D903239BE0404B1B6A03F00203D0
:101CBC00002BEED1FB7D012B05D13C4BDB693B4A64
:101CCC0023F08053D3617B68DB69002B00F08780A5
:101CDC00364B5B6803F00C03082B61D07B68DB6927
:101CEC00022B46D1334B00221A60FEF74DFE3861B1
:101CFC0008E0FEF749FE02463B69D31A022B01D9D4
:101D0C0003236DE0294B1B6803F00073002BF0D10B
:101D1C007B681B6AB3F5803F08D1244B5B6823F4C6
:101D2C0000327B689B68214913434B601F4B5B68F7
:101D3C0023F474127B68196A7B685B6A0B431B493A
:101D4C0013434B601B4B01221A60FEF71DFE3861DA
:101D5C0008E0FEF719FE02463B69D31A022B01D9A3
:101D6C0003233DE0114B1B6803F00073002BF0D0F4
:101D7C0035E0104B00221A60FEF706FE386108E0D1
:101D8C00FEF702FE02463B69D31A022B01D903234C
:101D9C0026E0064B1B6803F00073002BF0D11EE00D
:101DAC007B68DB69012B07D1012319E0001002408D
:101DBC0000700040600042420B4B5B68FB60FB68AC
:101DCC0003F480327B681B6A9A4206D1FB6803F4E9
:101DDC0070127B685B6A9A4201D0012300E00023F9
:101DEC0018461837BD4680BD0010024080B584B03F
:101DFC0000AF786039607B68002B01D10123D0E003
:101E0C006A4B1B6803F007033A689A4210D9674B78
:101E1C001B6823F0070265493B6813430B60634B57
:101E2C001B6803F007033A689A4201D00123B8E01B
:101E3C007B681B6803F00203002B20D07B681B68B7
:101E4C0003F00403002B05D0594B5B68584A43F44C
:101E5C00E06353607B681B6803F00803002B05D01C
:101E6C00534B5B68524A43F460535360504B5B686E
:101E7C0023F0F0027B689B684D4913434B607B68F1
:101E8C001B6803F00103002B40D07B685B68012BBF
:101E9C0007D1474B1B6803F40033002B15D10123EA
:101EAC007FE07B685B68022B07D1414B1B6803F01A
:101EBC000073002B09D1012373E03D4B1B6803F029
:101ECC000203002B01D101236BE0394B5B6823F03B
:101EDC0003027B685B68364913434B60FEF754FD85
:101EEC00F8600AE0FEF750FD0246FB68D31A41F297
:101EFC008832934201D9032353E02D4B5B6803F0E6
:101F0C000C027B685B689B009A42EBD1274B1B68E9
:101F1C0003F007033A689A4210D2244B1B6823F053
:101F2C00070222493B6813430B60204B1B6803F0EC
:101F3C0007033A689A4201D0012332E07B681B68A0
:101F4C0003F00403002B08D0194B5B6823F4E06208
:101F5C007B68DB68164913434B607B681B6803F096
:101F6C000803002B09D0124B5B6823F460527B688A
:101F7C001B69DB000E4913434B6000F021F802464D
:101F8C000B4B5B681B0903F00F030A49CB5C22FA6D
:101F9C0003F3094A1360094B1B681846FEF7B2FCA1
:101FAC00002318461037BD4680BD00BF00200240FC
:101FBC0000100240F8360008000000200400002049
:101FCC0080B487B000AF0023FB600023BB6000230C
:101FDC007B6100237B6000233B611E4B5B68FB60D5
:101FEC00FB6803F00C03042B02D0082B03D027E072
:101FFC00194B3B6127E0FB689B0C03F00F03174A5E
:10200C00D35C7B60FB6803F48033002B10D0114B46
:10201C005B685B0C03F00103114AD35CBB607B680B
:10202C000D4A03FB02F2BB68B2FBF3F37B6104E0E5
:10203C007B680C4A02FB03F37B617B693B6102E02A
:10204C00054B3B6100BF3B6918461C37BD4680BC45
:10205C00704700BF0010024000127A0010370008D1
:10206C002037000800093D0080B400AF024B1B680C
:10207C001846BD4680BC70470000002080B500AFFC
:10208C00FFF7F2FF0246054B5B681B0A03F00703E0
:10209C000349CB5C22FA03F3184680BD00100240C2
:1020AC000837000880B485B000AF78600A4B1B6815
:1020BC000A4AA2FB03235B0A7A6802FB03F3FB6068
:1020CC0000BFFB685A1EFA60002BF9D100BF00BF9D
:1020DC001437BD4680BC704700000020D34D621001
:1020EC0080B582B000AF78607B68002B01D10123F2
:1020FC0041E07B6893F83D30DBB2002B06D17B6866
:10210C00002283F83C207868FEF754FB7B6802229F
:10211C0083F83D207B681A687B68043319461046A7
:10212C0000F0D6FC7B68012283F846207B680122F4
:10213C0083F83E207B68012283F83F207B680122D4
:10214C0083F840207B68012283F841207B680122C0
:10215C0083F842207B68012283F843207B680122AC
:10216C0083F844207B68012283F845207B68012298
:10217C0083F83D20002318460837BD4680BD80B546
:10218C0082B000AF78607B68002B01D1012341E065
:10219C007B6893F83D30DBB2002B06D17B680022C4
:1021AC0083F83C20786800F039F87B68022283F8C9
:1021BC003D207B681A687B6804331946104600F092
:1021CC0087FC7B68012283F846207B68012283F818
:1021DC003E207B68012283F83F207B68012283F834
:1021EC0040207B68012283F841207B68012283F820
:1021FC0042207B68012283F843207B68012283F80C
:10220C0044207B68012283F845207B68012283F8F7
:10221C003D20002318460837BD4680BD80B483B0EE
:10222C0000AF786000BF0C37BD4680BC7047000023
:10223C0080B584B000AF786039603B68002B09D161
:10224C007B6893F83E30DBB2012B14BF01230023D3
:10225C00DBB222E03B68042B09D17B6893F83F305A
:10226C00DBB2012B14BF01230023DBB215E03B686A
:10227C00082B09D17B6893F84030DBB2012B14BFDB
:10228C0001230023DBB208E07B6893F84130DBB21A
:10229C00012B14BF01230023DBB2002B01D001233F
:1022AC005EE03B68002B04D17B68022283F83E2061
:1022BC0013E03B68042B04D17B68022283F83F2097
:1022CC000BE03B68082B04D17B68022283F840208A
:1022DC0003E07B68022283F841207B681B680122A3
:1022EC003968184600F08DFF7B681B681E4A9342C4
:1022FC0007D17B681B685A6C7B681B6842F40042F0
:10230C005A647B681B68184A93420ED07B681B6822
:10231C00B3F1804F09D07B681B68144A934204D0F8
:10232C007B681B68124A934211D17B681B689B68BF
:10233C0003F00703FB60FB68062B10D07B681B685F
:10234C001A687B681B6842F001021A6007E07B6820
:10235C001B681A687B681B6842F001021A60002334
:10236C0018461037BD4680BD002C014000040040CB
:10237C000008004080B582B000AF78607B68002B0D
:10238C0001D1012341E07B6893F83D30DBB2002B97
:10239C0006D17B68002283F83C20786800F039F87D
:1023AC007B68022283F83D207B681A687B680433C3
:1023BC001946104600F08CFB7B68012283F84620FE
:1023CC007B68012283F83E207B68012283F83F2042
:1023DC007B68012283F840207B68012283F841202E
:1023EC007B68012283F842207B68012283F843201A
:1023FC007B68012283F844207B68012283F8452006
:10240C007B68012283F83D20002318460837BD461F
:10241C0080BD80B483B000AF786000BF0C37BD4680
:10242C0080BC704780B586B000AF786039607B683F
:10243C00002B01D1012393E07B6893F83D30DBB294
:10244C00002B06D17B68002283F83C207868FEF7CD
:10245C0071F97B68022283F83D207B681B689B68BE
:10246C007A68126823F4804323F0070393607B6837
:10247C001A687B6804331946104600F029FB7B6808
:10248C001B689B687B617B681B689B693B617B68F5
:10249C001B681B6AFB603B681B687A6913437B6192
:1024AC003B6923F4407323F003033B613B689A6858
:1024BC003B689B691B0213433A6913433B613B69BD
:1024CC0023F4406323F00C033B613B6923F470431A
:1024DC0023F0F0033B613B68DA683B68DB691B0265
:1024EC0013433A6913433B613B681B691A013B6810
:1024FC001B6A1B0313433A6913433B61FB6823F0CC
:10250C002203FB603B685A683B685B691B01134301
:10251C00FA681343FB607B681B687A699A607B6876
:10252C001B683A699A617B681B68FA681A627B6857
:10253C00012283F846207B68012283F83E207B68C9
:10254C00012283F83F207B68012283F842207B68BC
:10255C00012283F843207B68012283F83D2000236D
:10256C0018461837BD4680BD80B584B000AF786082
:10257C0039607B6893F83E30FB737B6893F83F308F
:10258C00BB737B6893F842307B737B6893F8433062
:10259C003B733B68002B10D1FB7B012B02D17B7B67
:1025AC00012B01D0012369E07B68022283F83E20D5
:1025BC007B68022283F8422031E03B68042B10D167
:1025CC00BB7B012B02D13B7B012B01D0012355E0BE
:1025DC007B68022283F83F207B68022283F8432029
:1025EC001DE0FB7B012B08D1BB7B012B05D17B7B39
:1025FC00012B02D13B7B012B01D001233EE07B68F8
:10260C00022283F83E207B68022283F83F207B68FD
:10261C00022283F842207B68022283F843203B6825
:10262C00002B03D03B68042B08D00FE07B681B68A1
:10263C0001220021184600F0E4FD16E07B681B68BF
:10264C0001220421184600F0DCFD0EE07B681B68BB
:10265C0001220021184600F0D4FD7B681B68012282
:10266C000421184600F0CDFD00BF7B681B681A687A
:10267C007B681B6842F001021A6000231846103771
:10268C00BD4680BD80B586B000AFF860B9607A6099
:10269C000023FB75FB6893F83C30012B01D102231E
:1026AC0088E0FB68012283F83C207B68002B1BD15F
:1026BC00FB681868BB681968BB685A68BB68DB683C
:1026CC0000F0FCFBFB681B689A69FB681B6822F036
:1026DC000C029A61FB681B689969BB689A68FB6875
:1026EC001B680A439A6160E07B68042B1CD1FB6871
:1026FC001868BB681968BB685A68BB68DB6800F06F
:10270C0065FCFB681B689A69FB681B6822F44062D5
:10271C009A61FB681B689969BB689B681A02FB6825
:10272C001B680A439A6140E07B68082B1BD1FB684D
:10273C001868BB681968BB685A68BB68DB6800F02E
:10274C00B0FCFB681B68DA69FB681B6822F00C02A2
:10275C00DA61FB681B68D969BB689A68FB681B68FF
:10276C000A43DA6121E07B680C2B1CD1FB681868EA
:10277C00BB681968BB685A68BB68DB6800F0CCFCA6
:10278C00FB681B68DA69FB681B6822F44062DA613B
:10279C00FB681B68D969BB689B681A02FB681B68DD
:1027AC000A43DA6101E00123FB75FB68002283F820
:1027BC003C20FB7D18461837BD4680BD80B586B0E1
:1027CC0000AFF860B9607A600023FB75FB6893F882
:1027DC003C30012B01D10223AEE0FB68012283F8CF
:1027EC003C207B680C2B00F29F8001A252F823F056
:1027FC00312800083529000835290008352900083A
:10280C0071280008352900083529000835290008E9
:10281C00B328000835290008352900083529000897
:10282C00F3280008FB681B68B968184600F0BEF96D
:10283C00FB681B689A69FB681B6842F008029A6186
:10284C00FB681B689A69FB681B6822F004029A619A
:10285C00FB681B689969BB681A69FB681B680A43AB
:10286C009A6164E0FB681B68B968184600F004FACA
:10287C00FB681B689A69FB681B6842F400629A61EA
:10288C00FB681B689A69FB681B6822F480629A617A
:10289C00FB681B689969BB681B691A02FB681B689B
:1028AC000A439A6143E0FB681B68B968184600F05C
:1028BC004DFAFB681B68DA69FB681B6842F008027A
:1028CC00DA61FB681B68DA69FB681B6822F004029A
:1028DC00DA61FB681B68D969BB681A69FB681B68FD
:1028EC000A43DA6123E0FB681B68B968184600F0FC
:1028FC0097FAFB681B68DA69FB681B6842F4006294
:10290C00DA61FB681B68DA69FB681B6822F4806279
:10291C00DA61FB681B68D969BB681B691A02FB6822
:10292C001B680A43DA6102E00123FB7500BFFB68F8
:10293C00002283F83C20FB7D18461837BD4680BD2D
:10294C0080B584B000AF786039600023FB737B687E
:10295C0093F83C30012B01D10223B4E07B680122B7
:10296C0083F83C207B68022283F83D207B681B683F
:10297C009B68BB60BB6823F07703BB60BB6823F428
:10298C007F43BB607B681B68BA689A603B681B68B6
:10299C00B3F5005F3ED0B3F5005F00F28780B3F56E
:1029AC00805F00F08680B3F5805F7FD8702B1AD0E3
:1029BC00702B7BD8602B50D0602B77D8502B3CD011
:1029CC00502B73D8402B58D0402B6FD8302B64D061
:1029DC00302B6BD8202B60D0202B67D8002B5CD0F1
:1029EC00102B5AD062E07B6818683B6899683B688A
:1029FC005A683B68DB6800F0E5FB7B681B689B68EA
:102A0C00BB60BB6843F07703BB607B681B68BA682C
:102A1C009A604FE07B6818683B6899683B685A6815
:102A2C003B68DB6800F0CEFB7B681B689A687B68B0
:102A3C001B6842F480429A603CE07B6818683B68F3
:102A4C0059683B68DB681A4600F092FA7B681B6891
:102A5C005021184600F09CFB2CE07B6818683B6802
:102A6C0059683B68DB681A4600F0ECFA7B681B6817
:102A7C006021184600F08CFB1CE07B6818683B68F2
:102A8C0059683B68DB681A4600F072FA7B681B6871
:102A9C004021184600F07CFB0CE07B681A683B6810
:102AAC001B681946104600F073FB03E00123FB730F
:102ABC0000E000BF7B68012283F83D207B68002288
:102ACC0083F83C20FB7B18461037BD4680BD0000C8
:102ADC0080B485B000AF786039607B681B68FB60A0
:102AEC007B682F4A93420BD07B68B3F1804F07D0A1
:102AFC007B682C4A934203D07B682B4A934208D1C3
:102B0C00FB6823F07003FB603B685B68FA68134357
:102B1C00FB607B68224A93420BD07B68B3F1804FF9
:102B2C0007D07B681F4A934203D07B681E4A9342AE
:102B3C0008D1FB6823F44073FB603B68DB68FA68E0
:102B4C001343FB60FB6823F080023B685B69134313
:102B5C00FB607B68FA681A603B689A687B68DA628B
:102B6C003B681A687B689A627B680D4A934203D172
:102B7C003B681A697B681A637B6801225A617B681F
:102B8C001B6903F00103002B05D07B681B6923F044
:102B9C0001027B681A6100BF1437BD4680BC7047C8
:102BAC00002C0140000400400008004080B487B0B5
:102BBC0000AF786039607B681B6A7B617B681B6A3D
:102BCC0023F001027B681A627B685B683B617B685F
:102BDC009B69FB60FB6823F07003FB60FB6823F0D0
:102BEC000303FB603B681B68FA681343FB607B695B
:102BFC0023F002037B613B689B687A6913437B611A
:102C0C007B681C4A93420CD17B6923F008037B61DF
:102C1C003B68DB687A6913437B617B6923F00403AF
:102C2C007B617B68134A934211D13B6923F4807317
:102C3C003B613B6923F400733B613B685B693A6918
:102C4C0013433B613B689B693A6913433B617B6867
:102C5C003A695A607B68FA689A613B685A687B6883
:102C6C005A637B687A691A6200BF1C37BD4680BC08
:102C7C00704700BF002C014080B487B000AF786073
:102C8C0039607B681B6A7B617B681B6A23F01002CE
:102C9C007B681A627B685B683B617B689B69FB6045
:102CAC00FB6823F4E043FB60FB6823F44073FB6098
:102CBC003B681B681B02FA681343FB607B6923F0BB
:102CCC0020037B613B689B681B017A6913437B6122
:102CDC007B681D4A93420DD17B6923F080037B6195
:102CEC003B68DB681B017A6913437B617B6923F0CA
:102CFC0040037B617B68144A934213D13B6923F4F4
:102D0C0080633B613B6923F400633B613B685B6917
:102D1C009B003A6913433B613B689B699B003A6992
:102D2C0013433B617B683A695A607B68FA689A6125
:102D3C003B685A687B689A637B687A691A6200BF41
:102D4C001C37BD4680BC7047002C014080B487B056
:102D5C0000AF786039607B681B6A7B617B681B6A9B
:102D6C0023F480727B681A627B685B683B617B68CA
:102D7C00DB69FB60FB6823F07003FB60FB6823F0EE
:102D8C000303FB603B681B68FA681343FB607B69B9
:102D9C0023F400737B613B689B681B027A691343C5
:102DAC007B617B681D4A93420DD17B6923F40063E0
:102DBC007B613B68DB681B027A6913437B617B692F
:102DCC0023F480637B617B68144A934213D13B6983
:102DDC0023F480533B613B6923F400533B613B6814
:102DEC005B691B013A6913433B613B689B691B019F
:102DFC003A6913433B617B683A695A607B68FA68AD
:102E0C00DA613B685A687B68DA637B687A691A62B4
:102E1C0000BF1C37BD4680BC704700BF002C014072
:102E2C0080B487B000AF786039607B681B6A3B6107
:102E3C007B681B6A23F480527B681A627B685B6830
:102E4C007B617B68DB69FB60FB6823F4E043FB6020
:102E5C00FB6823F44073FB603B681B681B02FA6839
:102E6C001343FB603B6923F400533B613B689B6855
:102E7C001B033A6913433B617B680F4A934209D1A8
:102E8C007B6923F480437B613B685B699B017A69B6
:102E9C0013437B617B687A695A607B68FA68DA61F4
:102EAC003B685A687B681A647B683A691A6200BF8F
:102EBC001C37BD4680BC7047002C014080B487B0E5
:102ECC0000AFF860B9607A603B60FB681B6A3B61DD
:102EDC00FB681B6A23F00102FB681A62FB689B69A2
:102EEC007B61FB681F4A93420BD0FB68B3F1804FA8
:102EFC0007D0FB681C4A934203D0FB681B4A9342E1
:102F0C0001D1012300E00023002B08D07B6923F0C2
:102F1C0003037B617A697B6813437B6103E07B6904
:102F2C0043F001037B617B6923F0F0037B613B6819
:102F3C001B01DBB27A6913437B613B6923F00A0303
:102F4C003B61BB6803F00A033A6913433B61FB68BE
:102F5C007A699A61FB683A691A6200BF1C37BD46F0
:102F6C0080BC7047002C0140000400400008004069
:102F7C0080B487B000AFF860B9607A60FB681B6AF8
:102F8C007B61FB681B6A23F00102FB681A62FB6819
:102F9C009B693B613B6923F0F0033B617B681B0140
:102FAC003A6913433B617B6923F00A037B617A69BD
:102FBC00BB6813437B61FB683A699A61FB687A6969
:102FCC001A6200BF1C37BD4680BC704780B487B006
:102FDC0000AFF860B9607A603B60FB681B6A7B618C
:102FEC00FB681B6A23F01002FB681A62FB689B6982
:102FFC003B613B6923F440733B617B681B023A697C
:10300C0013433B613B6923F470433B613B681B03F7
:10301C009BB23A6913433B617B6923F0A0037B614C
:10302C00BB681B0103F0A0037A6913437B61FB6847
:10303C003A699A61FB687A691A6200BF1C37BD460F
:10304C0080BC704780B487B000AFF860B9607A601C
:10305C00FB681B6A7B61FB681B6A23F01002FB6830
:10306C001A62FB689B693B613B6923F470433B61CB
:10307C007B681B033A6913433B617B6923F0A00314
:10308C007B61BB681B017A6913437B61FB683A69FE
:10309C009A61FB687A691A6200BF1C37BD4680BC16
:1030AC00704780B487B000AFF860B9607A603B605D
:1030BC00FB681B6A7B61FB681B6A23F48072FB68EC
:1030CC001A62FB68DB693B613B6923F003033B61DC
:1030DC003A697B6813433B613B6923F0F0033B6126
:1030EC003B681B01DBB23A6913433B617B6923F4F8
:1030FC0000737B61BB681B0203F400737A69134392
:10310C007B61FB683A69DA61FB687A691A6200BF15
:10311C001C37BD4680BC704780B487B000AFF860E8
:10312C00B9607A603B60FB681B6A7B61FB681B6A59
:10313C0023F48052FB681A62FB68DB693B613B69D4
:10314C0023F440733B617B681B023A6913433B6178
:10315C003B6923F470433B613B681B039BB23A69A8
:10316C0013433B617B6923F400537B61BB681B03F6
:10317C0003F400537A6913437B61FB683A69DA61A3
:10318C00FB687A691A6200BF1C37BD4680BC704769
:10319C0080B485B000AF786039607B689B68FB6059
:1031AC00FB6823F07003FB603A68FB68134343F041
:1031BC000703FB607B68FA689A6000BF1437BD4652
:1031CC0080BC704780B487B000AFF860B9607A609B
:1031DC003B60FB689B687B617B6923F47F437B616D
:1031EC003B681A027B681A43BB6813437A69134322
:1031FC007B61FB687A699A6000BF1C37BD4680BC56
:10320C00704780B487B000AFF860B9607A60BB6873
:10321C0003F01F03012202FA03F37B61FB681A6AB5
:10322C007B69DB431A40FB681A62FB681A6ABB684D
:10323C0003F01F03796801FA03F31A43FB681A625F
:10324C0000BF1C37BD4680BC7047000080B485B001
:10325C0000AF786039607B6893F83C30012B01D16A
:10326C00022346E07B68012283F83C207B68022223
:10327C0083F83D207B681B685B68FB607B681B6880
:10328C009B68BB60FB6823F07003FB603B681B68AA
:10329C00FA681343FB607B681B68FA685A607B68AA
:1032AC001B68164A93420ED07B681B68B3F1804FA3
:1032BC0009D07B681B68124A934204D07B681B6858
:1032CC00104A93420CD1BB6823F08003BB603B686F
:1032DC005B68BA681343BB607B681B68BA689A600A
:1032EC007B68012283F83D207B68002283F83C2018
:1032FC00002318461437BD4680BC7047002C014093
:10330C00000400400008004080B584B002AF786033
:10331C000B46FB70FB789BB24FF0FF3200927A6841
:10332C0078210348FDF788FF00BF0837BD4680BDF4
:10333C002800002080B582B000AF0346FB71054A1F
:10334C00FB79537002210348FFF7DEFF00BF0837FB
:10335C00BD4680BD1005002080B500AF6420FDF790
:10336C001DFBAE20FFF7E6FFD520FFF7E3FF802023
:10337C00FFF7E0FFA820FFF7DDFF3F20FFF7DAFFA4
:10338C00D320FFF7D7FF0020FFF7D4FF4020FFF733
:10339C00D1FF8D20FFF7CEFF1420FFF7CBFF2020AD
:1033AC00FFF7C8FF0220FFF7C5FFA120FFF7C2FF00
:1033BC00C820FFF7BFFFDA20FFF7BCFF1220FFF792
:1033CC00B9FF8120FFF7B6FF7F20FFF7B3FFD920AD
:1033DC00FFF7B0FFF120FFF7ADFFDB20FFF7AAFFEF
:1033EC004020FFF7A7FFA420FFF7A4FFA620FFF7BC
:1033FC00A1FFAF20FFF79EFF00BF80BD80B500AFDF
:10340C004FF480620021024800F038F900BF80BD03
:10341C001001002080B483B000AF0346FB710B4653
:10342C00BB7113467B7197F90730002B43DBBB79DB
:10343C003F2B40D87B79002B1DD1BB79DB08D8B250
:10344C000246FB791E49D2010A4413441B785AB236
:10345C00BB7903F00703012101FA03F35BB21343B9
:10346C0059B20246FB79C8B21549D2010A44134439
:10347C0002461A7020E0BB79DB08D8B20246FB7911
:10348C000F49D2010A4413441B785AB2BB7903F09A
:10349C000703012101FA03F35BB2DB435BB2134078
:1034AC0059B20246FB79C8B20549D2010A44134409
:1034BC0002461A7000E000BF0C37BD4680BC704756
:1034CC001001002090B585B000AF044608461146A7
:1034DC001A462346FB710346BB710B467B711346A0
:1034EC003B710023FB817B79BB817B799BB25B00B9
:1034FC009BB2C3F103039BB27B81B3E0BB89DBB20C
:10350C00FA79D31AD8B2FB89DBB2BA79D31ADBB207
:10351C003A791946FFF77EFFBB89DAB2FB7913447F
:10352C00D8B2FB89DBB2BA79D31ADBB23A79194635
:10353C00FFF770FFFB89DBB2FA79D31AD8B2BB89DB
:10354C00DAB2BB791344DBB23A791946FFF762FF62
:10355C00BB89DBB2FA79D31AD8B2FB89DBB2BA7960
:10356C00D31ADBB23A791946FFF754FFFB89DBB269
:10357C00FA79D31AD8B2BB89DBB2BA79D31ADBB2D7
:10358C003A791946FFF746FFBB89DAB2FB79134447
:10359C00D8B2FB89DAB2BB791344DBB23A7919465B
:1035AC00FFF738FFFB89DAB2FB791344D8B2BB8939
:1035BC00DBB2BA79D31ADBB23A791946FFF72AFF94
:1035CC00FB89DAB2FB791344D8B2BB89DAB2BB7986
:1035DC001344DBB23A791946FFF71CFFBB89DBB207
:1035EC00FA79D31AD8B2FB89DAB2BB791344DBB2BD
:1035FC003A791946FFF70EFFB7F90E309BB201333B
:10360C009BB2FB81B7F90A30002B09DAFB899B00CE
:10361C009AB27B8913449BB206339BB27B8113E035
:10362C00B7F90E20B7F90C30D31A9BB29B009AB2A3
:10363C007B8913449BB20A339BB27B81B7F90C3064
:10364C009BB2013B9BB2BB81FB89DAB2FB79134481
:10365C00D8B2BB89DAB2BB791344DBB23A791946DA
:10366C00FFF7D8FEB7F90E20B7F90C309A427FF766
:10367C0045AF00BF00BF1437BD4690BD03460244A2
:10368C00934200D1704703F8011BF9E770B500268F
:10369C000C4D0D4C641BA410A64209D100F01AF875
:1036AC0000260A4D0A4C641BA410A64205D170BD1D
:1036BC0055F8043B98470136EEE755F8043B98471C
:1036CC000136F2E7243700082437000824370008B5
:1036DC0028370008F8B500BFF8BC08BC9E467047F8
:0C36EC00F8B500BFF8BC08BC9E46704753
:1036F800000000000000000001020304060708099A
:10370800000000000102030402030405060708097B
:0C3718000A0B0C0D0E0F10100102000037
:043724003101000867
:043728000D01000887
:0C372C0000127A001000000001000000F4
:04000005080008994E
:00000001FF
